{
  "_format": "hh-sol-artifact-1",
  "contractName": "Transactions",
  "sourceName": "contracts/Transactions.sol",
  "abi": [
    {
      "anonymous": false,
      "inputs": [
        {
          "indexed": false,
          "internalType": "address",
          "name": "sender",
          "type": "address"
        },
        {
          "indexed": false,
          "internalType": "address",
          "name": "receiver",
          "type": "address"
        },
        {
          "indexed": false,
          "internalType": "uint256",
          "name": "amount",
          "type": "uint256"
        },
        {
          "indexed": false,
          "internalType": "uint256",
          "name": "timestamp",
          "type": "uint256"
        }
      ],
      "name": "Transfer",
      "type": "event"
    },
    {
      "inputs": [
        {
          "internalType": "address payable",
          "name": "receiver",
          "type": "address"
        },
        {
          "internalType": "uint256",
          "name": "amount",
          "type": "uint256"
        }
      ],
      "name": "addToBlockChain",
      "outputs": [],
      "stateMutability": "nonpayable",
      "type": "function"
    },
    {
      "inputs": [],
      "name": "getAllTransactions",
      "outputs": [
        {
          "components": [
            {
              "internalType": "address",
              "name": "sender",
              "type": "address"
            },
            {
              "internalType": "address",
              "name": "receiver",
              "type": "address"
            },
            {
              "internalType": "uint256",
              "name": "amount",
              "type": "uint256"
            },
            {
              "internalType": "uint256",
              "name": "timestamp",
              "type": "uint256"
            }
          ],
          "internalType": "struct Transactions.TransferStruct[]",
          "name": "",
          "type": "tuple[]"
        }
      ],
      "stateMutability": "view",
      "type": "function"
    }
  ],
  "bytecode": "0x608060405234801561001057600080fd5b506105f5806100206000396000f3fe608060405234801561001057600080fd5b50600436106100365760003560e01c806327506f531461003b5780634434bd1114610059575b600080fd5b610043610075565b60405161005091906104b2565b60405180910390f35b610073600480360381019061006e919061031b565b610194565b005b60606000805480602002602001604051908101604052809291908181526020016000905b8282101561018b57838290600052602060002090600402016040518060800160405290816000820160009054906101000a900473ffffffffffffffffffffffffffffffffffffffff1673ffffffffffffffffffffffffffffffffffffffff1673ffffffffffffffffffffffffffffffffffffffff1681526020016001820160009054906101000a900473ffffffffffffffffffffffffffffffffffffffff1673ffffffffffffffffffffffffffffffffffffffff1673ffffffffffffffffffffffffffffffffffffffff1681526020016002820154815260200160038201548152505081526020019060010190610099565b50505050905090565b600060405180608001604052803373ffffffffffffffffffffffffffffffffffffffff1681526020018473ffffffffffffffffffffffffffffffffffffffff16815260200183815260200142815250908060018154018082558091505060019003906000526020600020906004020160009091909190915060008201518160000160006101000a81548173ffffffffffffffffffffffffffffffffffffffff021916908373ffffffffffffffffffffffffffffffffffffffff16021790555060208201518160010160006101000a81548173ffffffffffffffffffffffffffffffffffffffff021916908373ffffffffffffffffffffffffffffffffffffffff160217905550604082015181600201556060820151816003015550507f9ed053bb818ff08b8353cd46f78db1f0799f31c9e4458fdb425c10eccd2efc44338383426040516102e5949392919061046d565b60405180910390a15050565b60008135905061030081610591565b92915050565b600081359050610315816105a8565b92915050565b6000806040838503121561032e57600080fd5b600061033c858286016102f1565b925050602061034d85828601610306565b9150509250929050565b600061036383836103fa565b60808301905092915050565b6103788161055b565b82525050565b6103878161050d565b82525050565b6103968161050d565b82525050565b60006103a7826104e4565b6103b181856104fc565b93506103bc836104d4565b8060005b838110156103ed5781516103d48882610357565b97506103df836104ef565b9250506001810190506103c0565b5085935050505092915050565b608082016000820151610410600085018261037e565b506020820151610423602085018261037e565b506040820151610436604085018261044f565b506060820151610449606085018261044f565b50505050565b61045881610551565b82525050565b61046781610551565b82525050565b6000608082019050610482600083018761038d565b61048f602083018661036f565b61049c604083018561045e565b6104a9606083018461045e565b95945050505050565b600060208201905081810360008301526104cc818461039c565b905092915050565b6000819050602082019050919050565b600081519050919050565b6000602082019050919050565b600082825260208201905092915050565b600061051882610531565b9050919050565b600061052a82610531565b9050919050565b600073ffffffffffffffffffffffffffffffffffffffff82169050919050565b6000819050919050565b60006105668261056d565b9050919050565b60006105788261057f565b9050919050565b600061058a82610531565b9050919050565b61059a8161051f565b81146105a557600080fd5b50565b6105b181610551565b81146105bc57600080fd5b5056fea2646970667358221220f00bbc003ec519e04908bba45a1d8a8594fe64d2f8498a1b63ce8ec21c5d557364736f6c63430008000033",
  "linkReferences": {},
  "deployedLinkReferences": {}
}